:020000040000fa
:080000000002040000000000f2
:020000040000fa
:100400002f8020000e7f22000e01880000000000d7
:100410000c000700408b21000100200011000700a4
:10042000000020000000e000020032000000020096
:100430000000000062170200000000000040da0027
:100440000000fe004440a900000020000000e00081
:100450000300320000002000a00188004440a800f2
:100460000000060091018800800078000000eb0089
:1004700015003700e280400032a0b4009101ba00bc
:10048000e280400032a0b4009102ba00e280400055
:1004900032a0b4000002eb00472bde00f507b200eb
:1004a000602ce10004003a000059eb008301e900f0
:1004b000fdff3e00040037006128e100010032002a
:1004c0000082eb00040007001101ba000200e00006
:1004d000e8ff3a00000006003159ba008301e90044
:1004e0000c0032002159ba008301e90008003200f3
:1004f0000400e00003003a00e280400032a0b400b3
:10050000f5ff370011d9ba008301e900faff3a007c
:100510008100e800e180400032a0b4000000060045
:080520000040da000000fe00bb
:020000040000fa
:020000040001f9
:0457f00033ff000083
:020000040000fa
:020000040001f9
:0457f400c0ff0000f2
:020000040000fa
:020000040001f9
:0457f800af89000075
:020000040000fa
:020000040001f9
:0457fc00603f00000a
:020000040000fa
:1000080090020000900200009002000090020000a0
:100018009002000090020000900200009002000090
:100028009002000090020000900200009002000080
:100038009002000090020000900200009002000070
:020000040000fa
:020000040000fa
:100528000400fa00004f7800110798005116800067
:10053800f0ef2f00008060005016880000c8b3005c
:100548001e4f70001e80fb00401288000000eb0068
:1005580040128800001280004500de006100600043
:100568000004e000fbff3a00401280008040780061
:100578001e00900001487800001280004500de004f
:10058800610060000004e000fbff3a0040128000b8
:10059800804078001e0090000148780085c0bf00a8
:1005a800644060000004e000fcff32008540a900c0
:1005b800511680000010200000807000501688003e
:1005c800100020000080fa00000006000400fa0075
:1005d800204798003147980051168000f0ef2f000f
:1005e80000806000501688002e4090000074a10022
:1005f800204798002e4090000080fb0040128800a1
:100608003e4090000080fb004012880000128000ed
:100618004500de00610060000004e000fbff3a00d6
:1006280040128000004f7800001280004500de0074
:10063800610060000004e000fbff3a004012800007
:10064800004f780085c0bf00644060000004e000ef
:10065800fcff32008540a9005116800000102000e0
:100668000080700050168800100020000080fa00fa
:10067800000006000400fa00000f78009e007800d1
:10068800f0c0b300a6ff07000004e00003003a0032
:100698000000eb001007980002003700100020004f
:1006a800100798001e0090000080fa000000060065
:1006b8000400fa00000f78009e00780070c0b300b4
:1006c80097ff07000004e00003003a000000eb0079
:1006d800100798000200370010002000100798004b
:1006e8001e0090000080fa00000006000800fa00d2
:1006f80020479800210798008e00780070c0b3004a
:1007080087ff07000004e00003003a000000eb0048
:1007180030079800ae003700ae40900000c8b30024
:1007280080cf500013003a009e40780000c8b30004
:1007380000c06000004f78001e4078000004e00010
:1007480006003200ae00900010c0b3008048780068
:1007580010002000300798009d003700ae00900080
:100768000040eb0080487800100020003007980017
:1007780097003700ae40900000c4b30080cf50000f
:1007880012003a001e4078000044b200004f780082
:100798001e4078000004e00006003200ae00900021
:1007a80010c0b3008048780010002000300798007f
:1007b80087003700ae0090000040eb0080487800ca
:1007c800100020003007980081003700ae409000ec
:1007d80000c2b30080cf500012003a001e407800db
:1007e8000042b200004f78001e4078000004e0008c
:1007f80006003200ae00900010c0b30080487800b8
:10080800100020003007980071003700ae009000fb
:100818000040eb0080487800100020003007980066
:100828006b0037002e409000f04f500012003a0045
:100838001e40780070406000004f78001e4078002d
:100848000004e00006003200ae00900010c0b300c3
:100858008048780010002000300798005c003700be
:10086800ae0090000040eb008048780010002000a7
:1008780030079800560037002e409000e84f50008f
:1008880012003a001e40780068406000004f78006f
:100898001e4078000004e00006003200ae00900020
:1008a80010c0b3008048780010002000300798007e
:1008b80047003700ae0090000040eb008048780009
:1008c8001000200030079800410037002e409000ab
:1008d800e44f500012003a001e4078006440600067
:1008e800004f78001e4078000004e0000600320047
:1008f800ae00900010c0b3008048780010002000bf
:100908003007980032003700ae0090000040eb003e
:100918008048780010002000300798002c0037002d
:100928002e409000e24f500012003a001e4078001e
:1009380062406000004f78001e4078000004e0002c
:1009480006003200ae00900010c0b3008048780066
:1009580010002000300798001d003700ae009000fe
:100968000040eb0080487800100020003007980015
:10097800170037002e409000e14f500012003a0057
:100988001e40780061406000004f78001e407800eb
:100998000004e00006003200ae00900010c0b30072
:1009a80080487800100020003007980008003700c1
:1009b800ae0090000040eb00804878001000200056
:1009c80030079800020037000000eb00300798005d
:1009d8003e0090000080fa00000006000600fa00c1
:1009e800100798008e00780000c2b300ccfe070004
:1009f8000004e00003003a000000eb002007980024
:100a0800120037001e4078006f406000004f7800e9
:100a18001e009000c400dd001e40780000c0700079
:100a2800004f78009e40780000c2b300e7fe070040
:100a38000004e00003003a000000eb0020079800e3
:100a48000200370010002000200798002e009000b8
:100a58000080fa00000006000600fa00100798005f
:100a68008e007800f0c1b300adfe07000004e0007e
:100a780003003a000000eb0020079800130037003d
:100a88009e407800f0cbb30000c06000004f7800b3
:100a98001e009000c600dd001e40780000c07000f7
:100aa800004f78009e407800f0c1b300c7fe0700f1
:100ab8000004e00003003a000000eb002007980063
:100ac8000200370010002000200798002e00900038
:100ad8000080fa00000006000600fa0010079800df
:100ae8008e007800f0c1b3008dfe07000004e0001e
:100af80003003a000000eb002007980012003700be
:100b08001e4078000074a100004f78001e0090007d
:100b1800c700dd001e40780000c07000004f78005c
:100b28009e407800f0c1b300a8fe07000004e00072
:100b380003003a000000eb0020079800020037008d
:100b480010002000200798002e0090000080fa0076
:100b5800000006000600fa00100798008e007800d2
:100b680080c0b3006efe07000004e00003003a00f6
:100b78000000eb0020079800450037008e00e800d1
:100b880090c0b30066fe07000004e00003003a00ce
:100b98000000eb00200798003d0037001e40900041
:100ba8000080fb00c800dd001e4078000080fb00cc
:100bb80000807000c400de001e009000010878006c
:100bc8008e007800a0c0b30055fe07000004e000c6
:100bd80003003a000000eb00200798002c003700c3
:100be8008e00e800b0c0b3004dfe07000004e0002e
:100bf80003003a000000eb002007980024003700ab
:100c08001e4090000080fb00c800dd001e407800f8
:100c18000080fb0000807000c400de001e00900011
:100c2800110098008e007800c0c0b3003cfe070099
:100c38000004e00003003a000000eb0020079800e1
:100c4800130037008e00e800d0c0b30034fe070060
:100c58000004e00003003a000000eb0020079800c1
:100c68000b0037001e4090000080fb00c800dd002c
:100c78001e4078000080fb0000807000c400de0089
:100c88001e00900021009800100020002007980006
:100c98002e0090000080fa00000006000600fa000e
:100ca800100798008e007800c0c0b3001cfe070033
:100cb8000004e00003003a000000eb002007980061
:100cc8000e0037008e00e800d0c0b30014fe070005
:100cd8000004e00003003a000000eb002007980041
:100ce800060037001e409000804078001e009000eb
:100cf8000148780010002000200798002e0090007e
:100d08000080fa00000006000800fa0010079800aa
:100d18008e00780000c2b30001fe07000004e00066
:100d280003003a000000eb00200798005800370045
:100d38008e00e80030c2b300f9fd07000004e000af
:100d480003003a000000eb0020079800500037002d
:100d58001e4078008080fb00000f200000806000ab
:100d68000000e00007003a0000c8bf00804078009b
:100d780000cfb30080c060001e40780000c0700043
:100d8800004f78001e009000300798003e00900049
:100d9800e10f50001b0032003e009000e10f5000b0
:100da800040039003e009000e20f500007003200b6
:100db800220037001e40780000e8b7001e40780087
:100dc8006f406000004f78001f0037009e40780099
:100dd80070cfb30000c06000004f78001e4078005c
:100de800004f78009e40900070cfb30000c06000b4
:100df800104798001e4090000034a000104798004b
:100e0800110037009e40780070cfb30000c060002a
:100e1800004f78001e4078000034a000004f780092
:100e28009e40900070cfb30000c06000104798004b
:100e38001e40900010479800030037000000eb00a8
:100e480020079800120037009e40780000c2b300c7
:100e5800defd07000004e00003003a000000eb009c
:100e6800200798000a0037009e40900030c2b30067
:100e7800d6fd07000004e00003003a000000eb0084
:100e88002007980002003700100020002007980073
:100e98002e0090000080fa00000006000600fa000c
:100ea800204798008e00780000c2b3009cfd070020
:100eb8000004e00003003a000000eb00200798005f
:100ec800130037009e40780080cfb30000c0600058
:100ed800004f78002e409000e74060001e407800e8
:100ee80000c07000004f78009e40780000c2b30038
:100ef800b6fd07000004e00003003a000000eb0024
:100f080020079800020037001000200020079800f2
:100f18002e0090000080fa00000006000600fa008b
:100f2800100798008e00780030c2b3007cfd0700df
:100f38000004e00003003a000000eb0020079800de
:100f4800130037009e407800f0ccb30000c060006a
:100f5800004f78001e009000c400dd001e4078009d
:100f680000c07000004f78009e40780030c2b30087
:100f780096fd07000004e00003003a000000eb00c3
:100f88002007980002003700100020002007980072
:100f98002e0090000080fa00000006000600fa000b
:100fa800100798008e00780030c2b3005cfd07007f
:100fb8000004e00003003a000000eb00200798005e
:100fc800120037001e4078000074a100004f78001e
:100fd8001e009000c700dd001e40780000c07000b1
:100fe800004f78009e40780030c2b30077fd0700bc
:100ff8000004e00003003a000000eb00200798001e
:101008000200370010002000200798002e009000f2
:101018000080fa00000006000600fa001007980099
:101028008e00780030c2b3003dfd07000004e000e8
:1010380003003a000000eb00200798001300370077
:101048009e407800f0cbb30000c06000004f7800ed
:101058001e009000c600dd001e40780000c0700031
:10106800004f78009e40780030c2b30057fd07005b
:101078000004e00003003a000000eb00200798009d
:101088000200370010002000200798002e00900072
:101098000080fa00000006000600fa001007980019
:1010a8008e00780030c2b3001dfd07000004e00088
:1010b80003003a000000eb002007980014003700f6
:1010c8009e40780090cfb30000c06000004f7800c9
:1010d8001e00900000404000804078001e407800cc
:1010e80000c07000004f78009e40780030c2b30006
:1010f80036fd07000004e00003003a000000eb00a2
:1011080020079800020037001000200020079800f0
:101118002e0090000080fa00000006000600fa0089
:10112800100798008e00780010c2b300fcfc07007e
:101138000004e00003003a000000eb0020079800dc
:10114800130037009e407800b0cfb30000c06000a5
:10115800004f78001e009000c200dd001e4078009d
:1011680000c07000004f78009e40780010c2b300a5
:1011780016fd07000004e00003003a000000eb0041
:101188002007980002003700100020002007980070
:101198002e0090000080fa00000006000600fa0009
:1011a800100798008e00780010c2b300dcfc07001e
:1011b8000004e00003003a000000eb00200798005c
:1011c800130037009e407800e0cfb30000c06000f5
:1011d800004f78001e009000804078001e40780084
:1011e80000c07000004f78009e40780010c2b30025
:1011f800f6fc07000004e00003003a000000eb00e2
:1012080020079800020037001000200020079800ef
:101218002e0090000080fa00000006000600fa0088
:10122800100798008e00780010c2b300bcfc0700bd
:101238000004e00003003a000000eb0020079800db
:10124800140037009e407800d0cfb30000c0600083
:10125800004f78001e009000004040008040780059
:101268001e40780000c07000004f78009e40780053
:1012780010c2b300d5fc07000004e00003003a00e8
:101288000000eb0020079800020037001000200043
:10129800200798002e0090000080fa000000060049
:1012a8000600fa00100798008e00780010c2b300fc
:1012b8009bfc07000004e00003003a000000eb007c
:1012c80020079800120037001e407800f043b20053
:1012d800004f78001e009000c600dd001e40780018
:1012e80000c07000004f78009e40780010c2b30024
:1012f800b6fc07000004e00003003a000000eb0021
:1013080020079800020037001000200020079800ee
:101318002e0090000080fa00000006000600fa0087
:10132800100798001e009000e30f500003003600dd
:101338000000eb00200798001b0037008e007800a3
:1013480010c2b30076fc07000004e00003003a0076
:101358000000eb0020079800130037009e4078003b
:10136800f0ccb30000c06000004f78001e00900071
:10137800c400dd001e40780000c07000004f7800f7
:101388009e40780010c2b30090fc07000004e00003
:1013980003003a000000eb00200798000200370025
:1013a80010002000200798002e0090000080fa000e
:1013b800000006000600fa00100798008e0078006a
:1013c80010c2b30056fc07000004e00003003a0016
:1013d8000000eb0020079800130037009e407800bb
:1013e80070cfb30000c06000004f78001e0090006e
:1013f800c300dd001e40780000c07000004f780078
:101408009e40780010c2b30070fc07000004e000a2
:1014180003003a000000eb002007980002003700a4
:1014280010002000200798002e0090000080fa008d
:10143800000006000600fa00204798008e00780099
:1014480020c2b30036fc07000004e00003003a00a5
:101458000000eb0020079800100037000040eb0068
:10146800004f78009e4078002e40900000c0700029
:10147800004f78009e40780020c2b30053fc07005c
:101488000004e00003003a000000eb002007980089
:101498000200370010002000200798002e0090005e
:1014a8000080fa00000006000600fa0020479800b5
:1014b8008e00780050c2b30019fc07000004e00059
:1014c80003003a000000eb002007980010003700e6
:1014d8000040eb00004f78009e4078002e409000be
:1014e80000c07000004f78009e40780050c2b300e2
:1014f80036fc07000004e00003003a000000eb009f
:1015080020079800020037001000200020079800ec
:101518002e0090000080fa00000006000600fa0085
:10152800204798008e00780080c3b300fcfb0700ba
:101538000004e00003003a000000eb0020079800d8
:10154800120037009e40780000ccb30000c0600055
:10155800004f78009e4078002e40900000c0700038
:10156800004f78009e40780080c3b30017fc070046
:101578000004e00003003a000000eb002007980098
:101588000200370010002000200798002e0090006d
:101598000080fa00000006000400fa00004f7800fe
:1015a8001e4078000004e00003003d000000eb004e
:1015b800100798000a0037009e407800a0c3b300c7
:1015c80002fc07000004e00003003a000000eb0002
:1015d800100798000200370010002000100798003c
:1015e8001e0090000080fa00000006000400fa00c7
:1015f800004f78001e4078000004e00003003d0022
:101608000000eb00100798000a0037009e407800a1
:10161800b0c3b300edfb07000004e00003003a008c
:101628000000eb00100798000200370010002000af
:10163800100798001e0090000080fa0000000600c5
:101648000400fa00004f78009e407800c0c3b30041
:10165800defb07000004e00003003a000000eb0096
:1016680010079800020037001000200010079800ab
:101678001e0090000080fa00000006000400fa0036
:10168800004f78009e407800d0c3b300cffb07001e
:101698000004e00003003a000000eb001007980087
:1016a8000200370010002000100798001e0090006c
:1016b8000080fa00000006000600fa0010079800f3
:1016c8008e00780090c3b30095fb07000004e0008b
:1016d80003003a000000eb0020079800b000370034
:1016e8001e4078000074a100004f78001e4078006a
:1016f8000080fb004600de000000a20061006000e0
:101708000004e000060032009e0090000040eb005c
:10171800804878001000200020079800a0003700bb
:101728001e4078000080fb004500de00610060007c
:101738000004e0004c0032001e4078000080fb00ee
:101748004300de00610060000004e0002300320076
:101758001e4078000080fb004200de00610060004f
:101768000004e000060032009e009000c0c2b300f2
:101778008048780010002000200798008800370073
:101788001e4078000080fb000000d100610060006e
:101798000004e000060032009e009000a0c2b300e2
:1017a8008048780010002000200798007c0037004f
:1017b8001e4078000080fb00610060000004e0002b
:1017c800750032009e00900090c2b30080487800f7
:1017d8001000200020079800710037001e40780094
:1017e8000080fb004200de00610060000004e000b1
:1017f800060032009e00900040c2b3008048780086
:101808001000200020079800650037001e4078006f
:101818000080fb000000d100610060000004e000cf
:10182800060032009e00900020c2b3008048780075
:101838001000200020079800590037001e4078004b
:101848000080fb00610060000004e00052003200ec
:101858009e00900010c2b30080487800100020005d
:10186800200798004e0037001e4078000080fb00db
:101878004300de00610060000004e0002300320045
:101888001e4078000080fb004200de00610060001e
:101898000004e000060032009e009000c0c1b300c2
:1018a8008048780010002000200798003c0037008e
:1018b8001e4078000080fb000000d100610060003d
:1018c8000004e000060032009e009000a0c1b300b2
:1018d800804878001000200020079800300037006a
:1018e8001e4078000080fb00610060000004e000fa
:1018f800290032009e00900090c1b3008048780013
:101908001000200020079800250037001e407800ae
:101918000080fb004200de00610060000004e0007f
:10192800060032009e00900040c1b3008048780055
:101938001000200020079800190037001e4078008a
:101948000080fb000000d100610060000004e0009e
:10195800060032009e00900020c1b3008048780045
:1019680010002000200798000d0037001e40780066
:101978000080fb00610060000004e0000600320007
:101988009e00900010c1b30080487800100020002d
:1019980020079800020037000000eb00200798009d
:1019a8002e0090000080fa00000006000400fa00f3
:1019b80001c8b30040c2b30004fb07000004e00004
:1019c80003003a000000eb00100798000a003700f7
:1019d8008040eb0040c2b300fcfa07000004e000be
:1019e80003003a000000eb001007980002003700df
:1019f80010002000100798001e0090000080fa00d8
:101a0800000006000600fa00100798008e00780013
:101a180040c2b300c2fa07000004e00003003a0025
:101a28000000eb0020079800130037009e40780064
:101a380070cfb30000c06000004f78001e00900017
:101a4800c300dd001e40780000c07000004f780021
:101a58009e40780040c2b300dcfa07000004e000b2
:101a680003003a000000eb0020079800020037004e
:101a780010002000200798002e0090000080fa0037
:101a8800000006000400fa008e00780010c3b300be
:101a9800a3fa07000004e00003003a000000eb008e
:101aa8001007980002003700100020001007980067
:101ab8001e0090000080fa00000006000600fa00f0
:101ac800204798008e00780000c3b30094fa0700fe
:101ad8000004e00003003a000000eb002007980033
:101ae800110037001e4078000044b200004f780013
:101af8009e4078002e40900000c07000004f780093
:101b08009e40780000c3b300b0fa07000004e0006c
:101b180003003a000000eb0020079800020037009d
:101b280010002000200798002e0090000080fa0086
:101b3800000006000600fa00100798008e007800e2
:101b480000c3b30076fa07000004e00003003a007f
:101b58000000eb0020079800120037001e407800b4
:101b6800f043b200004f78001e009000c600dd0070
:101b78001e40780000c07000004f78009e4078003a
:101b880000c3b30091fa07000004e00003003a0024
:101b98000000eb002007980002003700100020002a
:101ba800200798002e0090000080fa000000060030
:101bb8000600fa00100798008e00780000c3b300f2
:101bc80057fa07000004e00003003a000000eb00a9
:101bd800200798004c0037008e00e80040c2b30090
:101be8004ffa07000004e00003003a000000eb0091
:101bf80020079800440037001e009000e10f5000b5
:101c08000e003a009e407800f0cbb30000c06000a0
:101c1800004f78009e40780000c4b30000c07000f8
:101c2800004f78009e409000b0cfb30000c0600025
:101c3800104798001e409000104798001e00900022
:101c4800e20f50000f003a009e407800f0cbb3003e
:101c580000c06000004f78009e40780000c4b300c8
:101c680000c07000004f78009e409000b0cfb300d5
:101c780000c06000104798001e4090000024a0009b
:101c8800104798001e0090000000e0000c003a0089
:101c98009e407800f0cbb30000c06000004f780091
:101ca8001e407800004f78009e409000b0cfb300ef
:101cb80000c06000104798001e4090001047980030
:101cc8009e40780000c3b30040fa07000004e0001b
:101cd80003003a000000eb00200798000a003700d4
:101ce8009e40900040c2b30038fa07000004e000ac
:101cf80003003a000000eb002007980002003700bc
:101d080010002000200798002e0090000080fa00a4
:101d1800000006000800fa00100798008e007800fe
:101d280010c3b300fef907000004e00003003a0006
:101d38000000eb00300798003d0037001e40780097
:101d48000074a100004f78001e4078000080fb005e
:101d58002007980040042000ae009000808f5000bb
:101d68001a00320040042000ae009000808f50001e
:101d780009003c0010042000ae009000808f500045
:101d88001a00320020042000ae009000808f50001e
:101d9800120032002400370000052000ae00900039
:101da800808f50001d00320000062000ae00900019
:101db800808f50001500320080042000ae00900093
:101dc800808f50000d003200170037009e009000f1
:101dd80040c4b30080487800130037009e0090008c
:101de80020c4b300804878000f0037009e009000a0
:101df80010c4b300804878000b0037009e009000a4
:101e080080c4b30080487800070037009e00900027
:101e180000c6b30080487800030037009e00900099
:101e280000c5b300804878001000200030079800f3
:101e38003e0090000080fa00000006000400fa004e
:101e4800004f78001e4078000004e00003003d00c9
:101e58000000eb00100798000a0037009e40780049
:101e680020c3b300d9f907000004e00003003a00da
:101e78000000eb0010079800020037001000200057
:101e8800100798001e0090000080fa00000006006d
:101e98000400fa00004f78001e4078000004e000bb
:101ea80003003d000000eb00100798000a0037000f
:101eb8009e40780030c3b300c4f907000004e00076
:101ec80003003a000000eb001007980002003700fa
:101ed80010002000100798001e0090000080fa00f3
:101ee800000006000600fa00100798001e00900087
:101ef800e40f500029003a008e007800e0c2b300d9
:101f080087f907000004e00003003a000000eb0036
:101f180020079800ef0037001e4078007f406000df
:101f2800004f78001e407800004f78009e407800ef
:101f3800e0c2b300a5f907000004e00003003a007e
:101f48000000eb0020079800e20037008e007800c0
:101f580040c2b30072f907000004e00003003a0031
:101f68000000eb0020079800da0037009e40780058
:101f7800f0cbb30000c06000004f78009e407800ae
:101f880040c2b30091f907000004e00003003a00e2
:101f98000000eb0020079800ce0037001e009000dc
:101fa8000000e00030003a008e00780040c2b30024
:101fb8005bf907000004e00003003a000000eb00b2
:101fc80020079800c30037009e407800f0cbb3008c
:101fd80000c06000004f78009e40780000c4b30045
:101fe80000c07000004f78009e40780040c2b300e7
:101ff80076f907000004e00003003a000000eb0057
:1020080020079800b30037008e007800e0c2b300c4
:1020180043f907000004e00003003a000000eb0069
:1020280020079800ab0037001e4078007f40600012
:10203800004f78001e009000c600dd001e407800aa
:1020480000c07000004f78009e407800e0c2b300e6
:102058005ef907000004e00003003a000000eb000e
:10206800200798009b0037001e009000e10f5000e9
:1020780030003a008e00780040c2b30028f907000b
:102088000004e00003003a000000eb00200798007d
:10209800900037009e407800f0cbb30000c060008d
:1020a800004f78009e40780000c4b30000c0700064
:1020b800004f78009e40780040c2b30043f9070003
:1020c8000004e00003003a000000eb00200798003d
:1020d800800037008e007800e0c2b30010f90700d6
:1020e8000004e00003003a000000eb00200798001d
:1020f800780037001e4078007f406000004f78006d
:102108001e009000c600dd001e40780000c0700070
:10211800004f78009e407800e0c2b3002bf907001a
:102128000004e00003003a000000eb0020079800dc
:10213800680037001e009000e20f500030003a009f
:102148008e00780040c2b300f5f807000004e000f4
:1021580003003a000000eb00200798005d003700fc
:102168009e407800f0cbb30000c06000004f7800bc
:102178009e40780000c4b30000c07000004f780093
:102188009e40780040c2b30010f907000004e00048
:1021980003003a000000eb00200798004d003700cc
:1021a8008e007800e0c2b300ddf807000004e0000c
:1021b80003003a000000eb002007980045003700b4
:1021c8001e4078007f406000004f78001e0090009d
:1021d800c600dd001e40780000c07000004f780087
:1021e8009e407800e0c2b300f8f807000004e00061
:1021f80003003a000000eb00200798003500370084
:102208001e009000e30f500030003a008e00780066
:1022180040c2b300c2f807000004e00003003a001f
:102228000000eb00200798002a0037009e40780045
:10223800f0cbb30000c06000004f78009e407800eb
:1022480000c4b30000c07000004f78009e407800c2
:1022580040c2b300ddf807000004e00003003a00c4
:102268000000eb00200798001a0037008e00780065
:10227800e0c2b300aaf807000004e00003003a0037
:102288000000eb0020079800120037001e4078007d
:102298007f406000004f78001e009000c600dd00ff
:1022a8001e40780000c07000004f78009e40780003
:1022b800e0c2b300c5f807000004e00003003a00dc
:1022c8000000eb00200798000200370010002000f3
:1022d800200798002e0090000080fa0000000600f9
:1022e8000600fa00100798008e007800e0c2b300dc
:1022f8008bf807000004e00003003a000000eb0040
:1023080020079800130037009e407800f0cdb300f6
:1023180000c06000004f78001e009000c500dd007e
:102328001e40780000c07000004f78009e40780082
:10233800e0c2b300a5f807000004e00003003a007b
:102348000000eb0020079800020037001000200072
:10235800200798002e0090000080fa000000060078
:102368000600fa00204798002e409000ff4f5000ca
:10237800030036000000eb00200798001a00370021
:102388008e007800e0c2b30065f807000004e000a2
:1023980003003a000000eb00200798001200370005
:1023a8009e40780000ceb30000c06000004f780067
:1023b8009e4078002e40900000c07000004f7800ca
:1023c8009e407800e0c2b30080f807000004e000f7
:1023d80003003a000000eb002007980002003700d5
:1023e80010002000200798002e0090000080fa00be
:1023f800000006000400fa00000f78009e00780034
:1024080070c2b30046f807000004e00003003a0079
:102418000000eb00100798000200370010002000b1
:10242800100798001e0090000080fa0000000600c7
:102438000a00fa0020479800210798008e007800cb
:1024480070c2b30036f807000004e00003003a0049
:102458000000eb0040079800bb0037002e409000ba
:102468000080fb0030079800be009000e88f500005
:102478006b0032003e009000e80f50000a003c005c
:10248800be009000e28f5000890032003e009000ac
:10249800e40f500074003200be009000e18f50003d
:1024a80095003200a600370000022000be00900010
:1024b800808f50003600320000022000be009000dd
:1024c800808f500004003c003e009000f00f500048
:1024d800410032009a00370000042000be0090003e
:1024e800808f50001800320000082000be009000c5
:1024f800808f500001003200910037009e40780024
:1025080000c8b30000c06000004f78001e4078008b
:102518000004e00006003200ae00900010c0b300d6
:102528008048780010002000400798008600370097
:10253800ae0090000040eb008048780011002000b9
:1025480041079800800037001e4078000044b20020
:10255800004f78001e4078000004e00006003200ba
:10256800ae00900010c0b300804878001000200032
:102578004007980074003700ae0090000040eb0060
:102588008048780011002000410798006e0037004d
:102598001e4078000042b200004f78001e407800cc
:1025a8000004e00006003200ae00900010c0b30046
:1025b800804878001000200040079800620037002b
:1025c800ae0090000040eb00804878001100200029
:1025d800410798005c0037001e407800704060009a
:1025e800004f78001e4078000004e000060032002a
:1025f800ae00900010c0b3008048780010002000a2
:102608004007980050003700ae0090000040eb00f3
:102618008048780011002000410798004a003700e0
:102628001e40780068406000004f78001e40780027
:102638000004e00006003200ae00900010c0b300b5
:102648008048780010002000400798003e003700be
:10265800ae0090000040eb00804878001100200098
:1026680041079800380037001e4078006440600039
:10267800004f78001e4078000004e0000600320099
:10268800ae00900010c0b300804878001000200011
:10269800400798002c003700ae0090000040eb0087
:1026a8008048780011002000410798002600370074
:1026b8001e40780062406000004f78001e4078009d
:1026c8000004e00006003200ae00900010c0b30025
:1026d8008048780010002000400798001a00370052
:1026e800ae0090000040eb00804878001100200008
:1026f80041079800140037001e40780061406000d0
:10270800004f78001e4078000004e0000600320008
:10271800ae00900010c0b300804878001000200080
:102728004007980008003700ae0090000040eb001a
:102738008048780011002000410798000200370007
:102748000000eb00400798004e0090000080fa005f
:10275800000006000a00fa003007980064004700ed
:102768001007980064004700000fe8009e009000e2
:1027780080c2b3006af707000004e00003003a00d3
:102788000000eb0040079800330037009e007800f7
:1027980090c2b30062f707000004e00003003a00ab
:1027a8000000eb00400798002b0037002e00900037
:1027b800be009000800878009e009000a0c2b30080
:1027c80057f707000004e00003003a000000eb00a0
:1027d80040079800200037009e007800b0c2b30080
:1027e8004ff707000004e00003003a000000eb0088
:1027f80040079800180037002e009000be00900097
:10280800900098009e009000c0c2b30044f70700f3
:102818000004e00003003a000000eb0040079800c5
:102828000d0037009e007800d0c2b3003cf70700c7
:102838000004e00003003a000000eb0040079800a5
:1028480005003700ae0090003e009000210098007f
:1028580010002000400798004e0090000080fa0009
:10286800000006000400fa00000f78009e007800bf
:1028780010c3b3002af707000004e00003003a0081
:102888000000eb001007980002003700100020003d
:10289800100798001e0090000080fa000000060053
:1028a8000800fa0020479800210798008e00780059
:1028b80010c3b3001af707000004e00003003a0051
:1028c8000000eb003007980097003700ae409000fa
:1028d80000c4b30080cf500012003a001e407800b8
:1028e8000044b200004f78001e4078000004e00069
:1028f80006003200ae00900010c0b3008048780097
:10290800100020003007980087003700ae009000c4
:102918000040eb0080487800100020003007980045
:1029280081003700ae40900000c2b30080cf500055
:1029380012003a001e4078000042b200004f7800b2
:102948001e4078000004e00006003200ae0090004f
:1029580010c0b300804878001000200030079800ad
:1029680071003700ae0090000040eb00804878000e
:1029780010002000300798006b0037002e409000b0
:10298800f04f500012003a001e407800704060007e
:10299800004f78001e4078000004e0000600320076
:1029a800ae00900010c0b3008048780010002000ee
:1029b800300798005c003700ae0090000040eb0044
:1029c8008048780010002000300798005600370033
:1029d8002e409000e84f500012003a001e40780048
:1029e80068406000004f78001e4078000004e00056
:1029f80006003200ae00900010c0b3008048780096
:102a0800100020003007980047003700ae00900003
:102a18000040eb0080487800100020003007980044
:102a2800410037002e409000e44f500012003a0059
:102a38001e40780064406000004f78001e40780017
:102a48000004e00006003200ae00900010c0b300a1
:102a580080487800100020003007980032003700c6
:102a6800ae0090000040eb00804878001000200085
:102a7800300798002c0037002e409000e24f50009d
:102a880012003a001e40780062406000004f780053
:102a98001e4078000004e00006003200ae009000fe
:102aa80010c0b3008048780010002000300798005c
:102ab8001d003700ae0090000040eb008048780011
:102ac8001000200030079800170037002e409000b3
:102ad800e14f500012003a001e407800614060004b
:102ae800004f78001e4078000004e0000600320025
:102af800ae00900010c0b30080487800100020009d
:102b08003007980008003700ae0090000040eb0046
:102b18008048780010002000300798000200370035
:102b28000000eb00300798003e0090000080fa009b
:102b3800000006000400fa00000f78009e007800ec
:102b4800f0c2b30076f607000004e00003003a0084
:102b58000000eb001007980002003700100020006a
:102b6800100798001e0090000080fa000000060080
:102b78000a00fa0020479800210798008e00780084
:102b8800f0c2b30066f607000004e00003003a0054
:102b98000000eb00400798004e003700ae40900060
:102ba80000c8b30080cf500013003a009e40780060
:102bb80000c8b30000c06000004f78001e407800d5
:102bc8000004e00006003200ae00900010c0b30020
:102bd8008048780011002000410798003d00370028
:102be800ae0090000040eb00804878001000200004
:102bf8004007980037003700ae40900000c4b3008b
:102c080080cf500012003a001e4078000044b20005
:102c1800004f78001e4078000004e00006003200f3
:102c2800ae00900010c0b30080487800110020006a
:102c38004107980027003700ae0090000040eb00e5
:102c480080487800100020004007980021003700d5
:102c5800ae40900000c2b30080cf50001b003a0085
:102c68008040eb0061479800ae40900000c2b3007e
:102c780080cf500002003a0010c0b30060479800af
:102c88001e407800ee40900000c06000004f7800c1
:102c98001e4078000004e00006003200ae009000fc
:102ca80010c0b3008048780010002000400798004a
:102cb80008003700ae0090000040eb008048780024
:102cc8001100200041079800020037000000eb00c7
:102cd800400798004e0090000080fa0000000600af
:102ce8000600fa00100798008e007800f0c2b300c2
:102cf8000bf607000004e00003003a000000eb00b8
:102d080020079800080037001e4078007f406000c8
:102d1800004f78009e4078001e009000014878001f
:102d280010002000200798002e0090000080fa0074
:102d3800000006000600fa00100798008e007800d0
:102d480030c2b300f6f507000004e00003003a00c3
:102d58000000eb0020079800130037009e40780021
:102d6800e0cfb30000c06000004f78001e00900064
:102d7800804078001e40780000c07000004f780046
:102d88009e40780030c2b30010f607000004e0004f
:102d980003003a000000eb0020079800020037000b
:102da80010002000200798002e0090000080fa00f4
:102db800000006000200fa00004f78001147980052
:102dc80051168000f0ef2f00008060005016880038
:102dd8001e80fb0040128800001280000000d10015
:102de800610060000004e000fbff3a001e40900014
:102df8000080fb0040128800001280000000d10013
:102e0800610060000004e000fbff3a0085c0bf00dd
:102e1800644060000004e000fcff32008540a90027
:102e28005016800001102000010070005016880024
:102e38000080fa00000006000200fa00004f780047
:102e480051168000f0ef2f000080600050168800b7
:102e580000c8b3001e4f70001e80fb00401288009f
:102e6800001280000000d100610060000004e00052
:102e7800fbff3a00f00f200040128800001280008b
:102e88000000d100610060000004e000fbff3a0090
:102e980085c0bf00644060000004e000fcff320011
:102ea8008540a90050168000011020000100700024
:102eb800501688000080fa00000006000a00fa0098
:102ec8004b00070071000700820007000000eb00bc
:102ed8008df70700004f7800200020008af70700d0
:102ee800004f7800b1fa0700004f7800500020002a
:102ef800baf60700004f78000000eb0007f807005b
:102f0800004f780070c0b300e4f70700004f780066
:102f18000000eb0081f80700004f78001000200047
:102f28009ef80700004f78000000eb00bbf8070090
:102f3800004f78000000eb00d9f80700004f780038
:102f480010002000f5f80700004f7800100020005e
:102f580018f90700004f780000c4b30035f90700de
:102f6800004f78000000eb00a6fa0700004f780039
:102f780080c1b300b1fb0700004f78000040eb00b0
:102f8800c3fb0700004f78006002200064f50700cb
:102f9800004f7800a0c2b300c8fa0700004f7800bd
:102fa800000037000e80e800eafd0700004f7800b7
:102fb80000000000501680004900de00610060003b
:102fc8000004e000f7ff32006800470025fe070014
:102fd800004f78006002200051f50700004f78008c
:102fe800a0c2b300b5fa0700004f7800edff370024
:102ff8000000fa000080eb006019880001168000cc
:10300800c0ff2f0000806000001688004116800075
:10301800f0ef2f0000806000401688004116800005
:10302800002820000080700040168800511680009b
:10303800001020000080700050168800816a20006f
:103048009140780000ceb30000c060007040b3002b
:10305800a8e6b700516c20009140780000ceb3007c
:1030680000c060007040b300c5e6b700616c200086
:103078009140780000ceb30000c060000034a0008a
:10308800c6e6b7000080fa00000006000000fa005b
:103098002174200062042000730520008248780013
:1030a8008348780042c7a8000080fa0000000600a4
:1030b8000000fa002174200062042000730520003b
:1030c800824878008348780042c7a9000080fa0047
:1030d800000006000000fa000000eb000012880063
:1030e8000000eb001012880042a2a8000000eb00cc
:1030f800201288004342a9004302a90042c2a80046
:103108004322a900212420009140780030ceb3004a
:1031180000c0600042e2b7002124200091407800fe
:10312800c0cfb30000c060000014a00042e2b700a6
:103138004402a800012420009140780030ceb3005a
:1031480000c060004041b30040e2b7009540a900cc
:103158008540a90041e2a8000080fa0000000600ae
:020000040000fa
:10316800000800000200000000000000000000004d
:00000001FF
